{
  "abi": [
    {
      "inputs": [],
      "name": "sayHelloWorld",
      "outputs": [
        {
          "internalType": "string",
          "name": "",
          "type": "string"
        }
      ],
      "stateMutability": "pure",
      "type": "function"
    }
  ],
  "bytecode": "608060405234801561001057600080fd5b5060e38061001f6000396000f3fe6080604052348015600f57600080fd5b506004361060285760003560e01c806345773e4e14602d575b600080fd5b604080518082018252600b81526a12195b1b1bc815dbdc9b1960aa1b60208201529051605891906061565b60405180910390f35b600060208083528351808285015260005b81811015608c578581018301518582016040015282016072565b506000604082860101526040601f19601f830116850101925050509291505056fea264697066735822122048f7d6ad392c8857da59013a676a35ccb32f2eeaca313eb3cc6bea443d7d936464736f6c63430008130033",
  "bytecodeSha1": "49048014cfa5d7cea2153f0b82af176114a3ffe2",
  "compiler": {
    "evm_version": "istanbul",
    "optimizer": {
      "enabled": true,
      "runs": 200
    },
    "version": "0.8.19+commit.7dd6d404"
  },
  "contractName": "HelloWorld",
  "language": "Solidity",
  "natspec": {
    "kind": "dev",
    "methods": {},
    "version": 1
  },
  "opcodes": "PUSH1 0x80 PUSH1 0x40 MSTORE CALLVALUE DUP1 ISZERO PUSH1 0xF JUMPI PUSH1 0x0 DUP1 REVERT JUMPDEST POP PUSH1 0x4 CALLDATASIZE LT PUSH1 0x28 JUMPI PUSH1 0x0 CALLDATALOAD PUSH1 0xE0 SHR DUP1 PUSH4 0x45773E4E EQ PUSH1 0x2D JUMPI JUMPDEST PUSH1 0x0 DUP1 REVERT JUMPDEST PUSH1 0x40 DUP1 MLOAD DUP1 DUP3 ADD DUP3 MSTORE PUSH1 0xB DUP2 MSTORE PUSH11 0x12195B1B1BC815DBDC9B19 PUSH1 0xAA SHL PUSH1 0x20 DUP3 ADD MSTORE SWAP1 MLOAD PUSH1 0x58 SWAP2 SWAP1 PUSH1 0x61 JUMP JUMPDEST PUSH1 0x40 MLOAD DUP1 SWAP2 SUB SWAP1 RETURN JUMPDEST PUSH1 0x0 PUSH1 0x20 DUP1 DUP4 MSTORE DUP4 MLOAD DUP1 DUP3 DUP6 ADD MSTORE PUSH1 0x0 JUMPDEST DUP2 DUP2 LT ISZERO PUSH1 0x8C JUMPI DUP6 DUP2 ADD DUP4 ADD MLOAD DUP6 DUP3 ADD PUSH1 0x40 ADD MSTORE DUP3 ADD PUSH1 0x72 JUMP JUMPDEST POP PUSH1 0x0 PUSH1 0x40 DUP3 DUP7 ADD ADD MSTORE PUSH1 0x40 PUSH1 0x1F NOT PUSH1 0x1F DUP4 ADD AND DUP6 ADD ADD SWAP3 POP POP POP SWAP3 SWAP2 POP POP JUMP INVALID LOG2 PUSH5 0x6970667358 0x22 SLT KECCAK256 BASEFEE 0xF7 0xD6 0xAD CODECOPY 0x2C DUP9 JUMPI 0xDA MSIZE ADD GASPRICE PUSH8 0x6A35CCB32F2EEACA BALANCE RETURNDATACOPY 0xB3 0xCC PUSH12 0xEA443D7D936464736F6C6343 STOP ADDMOD SGT STOP CALLER ",
  "sha1": "3684c2153f614fb55eea3caaf61891311d5211c1",
  "source": "//SPDX-License-Identifier: MIT\npragma solidity 0.8.19;\n\ncontract HelloWorld {\n    function sayHelloWorld() public pure returns (string memory) {\n        return \"Hello World\";\n    }\n}",
  "sourcePath": "contracts/Hello.sol",
  "type": "contract"
}